{
  "contractName": "AshToken",
  "abi": [
    {
      "inputs": [
        {
          "internalType": "uint256",
          "name": "_initialSupply",
          "type": "uint256"
        }
      ],
      "stateMutability": "nonpayable",
      "type": "constructor"
    },
    {
      "anonymous": false,
      "inputs": [
        {
          "indexed": true,
          "internalType": "address",
          "name": "_owner",
          "type": "address"
        },
        {
          "indexed": true,
          "internalType": "address",
          "name": "_spender",
          "type": "address"
        },
        {
          "indexed": false,
          "internalType": "uint256",
          "name": "_value",
          "type": "uint256"
        }
      ],
      "name": "Approval",
      "type": "event"
    },
    {
      "anonymous": false,
      "inputs": [
        {
          "indexed": true,
          "internalType": "address",
          "name": "_from",
          "type": "address"
        },
        {
          "indexed": true,
          "internalType": "address",
          "name": "_to",
          "type": "address"
        },
        {
          "indexed": false,
          "internalType": "uint256",
          "name": "_value",
          "type": "uint256"
        }
      ],
      "name": "Transfer",
      "type": "event"
    },
    {
      "inputs": [
        {
          "internalType": "address",
          "name": "",
          "type": "address"
        },
        {
          "internalType": "address",
          "name": "",
          "type": "address"
        }
      ],
      "name": "allowance",
      "outputs": [
        {
          "internalType": "uint256",
          "name": "",
          "type": "uint256"
        }
      ],
      "stateMutability": "view",
      "type": "function"
    },
    {
      "inputs": [
        {
          "internalType": "address",
          "name": "",
          "type": "address"
        }
      ],
      "name": "balances",
      "outputs": [
        {
          "internalType": "uint256",
          "name": "",
          "type": "uint256"
        }
      ],
      "stateMutability": "view",
      "type": "function"
    },
    {
      "inputs": [],
      "name": "decimal",
      "outputs": [
        {
          "internalType": "uint8",
          "name": "",
          "type": "uint8"
        }
      ],
      "stateMutability": "view",
      "type": "function"
    },
    {
      "inputs": [],
      "name": "name",
      "outputs": [
        {
          "internalType": "string",
          "name": "",
          "type": "string"
        }
      ],
      "stateMutability": "view",
      "type": "function"
    },
    {
      "inputs": [],
      "name": "symbol",
      "outputs": [
        {
          "internalType": "string",
          "name": "",
          "type": "string"
        }
      ],
      "stateMutability": "view",
      "type": "function"
    },
    {
      "inputs": [],
      "name": "totalSupply",
      "outputs": [
        {
          "internalType": "uint256",
          "name": "",
          "type": "uint256"
        }
      ],
      "stateMutability": "view",
      "type": "function"
    },
    {
      "inputs": [
        {
          "internalType": "address",
          "name": "_to",
          "type": "address"
        },
        {
          "internalType": "uint256",
          "name": "value",
          "type": "uint256"
        }
      ],
      "name": "transfer",
      "outputs": [
        {
          "internalType": "bool",
          "name": "",
          "type": "bool"
        }
      ],
      "stateMutability": "nonpayable",
      "type": "function"
    },
    {
      "inputs": [
        {
          "internalType": "address",
          "name": "_spender",
          "type": "address"
        },
        {
          "internalType": "uint256",
          "name": "_value",
          "type": "uint256"
        }
      ],
      "name": "approve",
      "outputs": [
        {
          "internalType": "bool",
          "name": "success",
          "type": "bool"
        }
      ],
      "stateMutability": "nonpayable",
      "type": "function"
    },
    {
      "inputs": [
        {
          "internalType": "address",
          "name": "_from",
          "type": "address"
        },
        {
          "internalType": "address",
          "name": "_to",
          "type": "address"
        },
        {
          "internalType": "uint256",
          "name": "_value",
          "type": "uint256"
        }
      ],
      "name": "transferFrom",
      "outputs": [
        {
          "internalType": "bool",
          "name": "success",
          "type": "bool"
        }
      ],
      "stateMutability": "nonpayable",
      "type": "function"
    }
  ],
  "bytecode": "0x60806040526040518060400160405280600c81526020017f41736869736820546f6b656e0000000000000000000000000000000000000000815250600090805190602001906200005192919062000143565b506040518060400160405280600381526020017f4153480000000000000000000000000000000000000000000000000000000000815250600190805190602001906200009f92919062000143565b506012600260006101000a81548160ff021916908360ff160217905550348015620000c957600080fd5b50604051620010bb380380620010bb8339818101604052810190620000ef919062000233565b80600381905550600354600460003373ffffffffffffffffffffffffffffffffffffffff1673ffffffffffffffffffffffffffffffffffffffff1681526020019081526020016000208190555050620002c9565b828054620001519062000294565b90600052602060002090601f016020900481019282620001755760008555620001c1565b82601f106200019057805160ff1916838001178555620001c1565b82800160010185558215620001c1579182015b82811115620001c0578251825591602001919060010190620001a3565b5b509050620001d09190620001d4565b5090565b5b80821115620001ef576000816000905550600101620001d5565b5090565b600080fd5b6000819050919050565b6200020d81620001f8565b81146200021957600080fd5b50565b6000815190506200022d8162000202565b92915050565b6000602082840312156200024c576200024b620001f3565b5b60006200025c848285016200021c565b91505092915050565b7f4e487b7100000000000000000000000000000000000000000000000000000000600052602260045260246000fd5b60006002820490506001821680620002ad57607f821691505b602082108103620002c357620002c262000265565b5b50919050565b610de280620002d96000396000f3fe608060405234801561001057600080fd5b50600436106100935760003560e01c806327e235e31161006657806327e235e31461013457806376809ce31461016457806395d89b4114610182578063a9059cbb146101a0578063dd62ed3e146101d057610093565b806306fdde0314610098578063095ea7b3146100b657806318160ddd146100e657806323b872dd14610104575b600080fd5b6100a0610200565b6040516100ad9190610a41565b60405180910390f35b6100d060048036038101906100cb9190610afc565b61028e565b6040516100dd9190610b57565b60405180910390f35b6100ee610380565b6040516100fb9190610b81565b60405180910390f35b61011e60048036038101906101199190610b9c565b610386565b60405161012b9190610b57565b60405180910390f35b61014e60048036038101906101499190610bef565b6106f1565b60405161015b9190610b81565b60405180910390f35b61016c610709565b6040516101799190610c38565b60405180910390f35b61018a61071c565b6040516101979190610a41565b60405180910390f35b6101ba60048036038101906101b59190610afc565b6107aa565b6040516101c79190610b57565b60405180910390f35b6101ea60048036038101906101e59190610c53565b610983565b6040516101f79190610b81565b60405180910390f35b6000805461020d90610cc2565b80601f016020809104026020016040519081016040528092919081815260200182805461023990610cc2565b80156102865780601f1061025b57610100808354040283529160200191610286565b820191906000526020600020905b81548152906001019060200180831161026957829003601f168201915b505050505081565b600081600560003373ffffffffffffffffffffffffffffffffffffffff1673ffffffffffffffffffffffffffffffffffffffff16815260200190815260200160002060008573ffffffffffffffffffffffffffffffffffffffff1673ffffffffffffffffffffffffffffffffffffffff168152602001908152602001600020819055508273ffffffffffffffffffffffffffffffffffffffff163373ffffffffffffffffffffffffffffffffffffffff167f8c5be1e5ebec7d5bd14f71427d1e84f3dd0314c0f7b2291e5b200ac8c7c3b9258460405161036e9190610b81565b60405180910390a36001905092915050565b60035481565b6000600460008573ffffffffffffffffffffffffffffffffffffffff1673ffffffffffffffffffffffffffffffffffffffff168152602001908152602001600020548211156103d457600080fd5b600560008573ffffffffffffffffffffffffffffffffffffffff1673ffffffffffffffffffffffffffffffffffffffff16815260200190815260200160002060003373ffffffffffffffffffffffffffffffffffffffff1673ffffffffffffffffffffffffffffffffffffffff1681526020019081526020016000205482111561045d57600080fd5b81600460008673ffffffffffffffffffffffffffffffffffffffff1673ffffffffffffffffffffffffffffffffffffffff168152602001908152602001600020546104a89190610d22565b600460008673ffffffffffffffffffffffffffffffffffffffff1673ffffffffffffffffffffffffffffffffffffffff1681526020019081526020016000208190555081600460008573ffffffffffffffffffffffffffffffffffffffff1673ffffffffffffffffffffffffffffffffffffffff168152602001908152602001600020546105369190610d56565b600460008573ffffffffffffffffffffffffffffffffffffffff1673ffffffffffffffffffffffffffffffffffffffff1681526020019081526020016000208190555081600560008673ffffffffffffffffffffffffffffffffffffffff1673ffffffffffffffffffffffffffffffffffffffff16815260200190815260200160002060003373ffffffffffffffffffffffffffffffffffffffff1673ffffffffffffffffffffffffffffffffffffffff168152602001908152602001600020546106019190610d22565b600560008673ffffffffffffffffffffffffffffffffffffffff1673ffffffffffffffffffffffffffffffffffffffff16815260200190815260200160002060003373ffffffffffffffffffffffffffffffffffffffff1673ffffffffffffffffffffffffffffffffffffffff168152602001908152602001600020819055508273ffffffffffffffffffffffffffffffffffffffff168473ffffffffffffffffffffffffffffffffffffffff167fddf252ad1be2c89b69c2b068fc378daa952ba7f163c4a11628f55a4df523b3ef846040516106de9190610b81565b60405180910390a3600190509392505050565b60046020528060005260406000206000915090505481565b600260009054906101000a900460ff1681565b6001805461072990610cc2565b80601f016020809104026020016040519081016040528092919081815260200182805461075590610cc2565b80156107a25780601f10610777576101008083540402835291602001916107a2565b820191906000526020600020905b81548152906001019060200180831161078557829003601f168201915b505050505081565b6000600460003373ffffffffffffffffffffffffffffffffffffffff1673ffffffffffffffffffffffffffffffffffffffff168152602001908152602001600020548211156107f857600080fd5b81600460003373ffffffffffffffffffffffffffffffffffffffff1673ffffffffffffffffffffffffffffffffffffffff168152602001908152602001600020546108439190610d22565b600460003373ffffffffffffffffffffffffffffffffffffffff1673ffffffffffffffffffffffffffffffffffffffff1681526020019081526020016000208190555081600460008573ffffffffffffffffffffffffffffffffffffffff1673ffffffffffffffffffffffffffffffffffffffff168152602001908152602001600020546108d19190610d56565b600460008573ffffffffffffffffffffffffffffffffffffffff1673ffffffffffffffffffffffffffffffffffffffff168152602001908152602001600020819055508273ffffffffffffffffffffffffffffffffffffffff163373ffffffffffffffffffffffffffffffffffffffff167fddf252ad1be2c89b69c2b068fc378daa952ba7f163c4a11628f55a4df523b3ef846040516109719190610b81565b60405180910390a36001905092915050565b6005602052816000526040600020602052806000526040600020600091509150505481565b600081519050919050565b600082825260208201905092915050565b60005b838110156109e25780820151818401526020810190506109c7565b838111156109f1576000848401525b50505050565b6000601f19601f8301169050919050565b6000610a13826109a8565b610a1d81856109b3565b9350610a2d8185602086016109c4565b610a36816109f7565b840191505092915050565b60006020820190508181036000830152610a5b8184610a08565b905092915050565b600080fd5b600073ffffffffffffffffffffffffffffffffffffffff82169050919050565b6000610a9382610a68565b9050919050565b610aa381610a88565b8114610aae57600080fd5b50565b600081359050610ac081610a9a565b92915050565b6000819050919050565b610ad981610ac6565b8114610ae457600080fd5b50565b600081359050610af681610ad0565b92915050565b60008060408385031215610b1357610b12610a63565b5b6000610b2185828601610ab1565b9250506020610b3285828601610ae7565b9150509250929050565b60008115159050919050565b610b5181610b3c565b82525050565b6000602082019050610b6c6000830184610b48565b92915050565b610b7b81610ac6565b82525050565b6000602082019050610b966000830184610b72565b92915050565b600080600060608486031215610bb557610bb4610a63565b5b6000610bc386828701610ab1565b9350506020610bd486828701610ab1565b9250506040610be586828701610ae7565b9150509250925092565b600060208284031215610c0557610c04610a63565b5b6000610c1384828501610ab1565b91505092915050565b600060ff82169050919050565b610c3281610c1c565b82525050565b6000602082019050610c4d6000830184610c29565b92915050565b60008060408385031215610c6a57610c69610a63565b5b6000610c7885828601610ab1565b9250506020610c8985828601610ab1565b9150509250929050565b7f4e487b7100000000000000000000000000000000000000000000000000000000600052602260045260246000fd5b60006002820490506001821680610cda57607f821691505b602082108103610ced57610cec610c93565b5b50919050565b7f4e487b7100000000000000000000000000000000000000000000000000000000600052601160045260246000fd5b6000610d2d82610ac6565b9150610d3883610ac6565b925082821015610d4b57610d4a610cf3565b5b828203905092915050565b6000610d6182610ac6565b9150610d6c83610ac6565b9250827fffffffffffffffffffffffffffffffffffffffffffffffffffffffffffffffff03821115610da157610da0610cf3565b5b82820190509291505056fea26469706673582212204f0cc9bfbd866458c55f4eb52d916d478c857f0c0f662ec44dc6edc1b5fd87c564736f6c634300080d0033",
  "immutableReferences": {},
  "source": "//SPDX-License-Identifier: MIT\r\npragma solidity ^0.8.13;\r\n\r\ncontract AshToken {\r\n\tstring public name = \"Ashish Token\";\r\n\tstring public symbol = \"ASH\";\r\n\tuint8 public decimal = 18;\r\n\tuint256 public totalSupply;\r\n\tmapping(address => uint256) public balances;\r\n\tmapping(address => mapping(address => uint256)) public allowance;\r\n\r\n\tevent Transfer(address indexed _from, address indexed _to, uint256 _value);\r\n\tevent Approval(address indexed _owner, address indexed _spender, uint _value);\r\n\r\n\tconstructor(uint256 _initialSupply) {\r\n\t\ttotalSupply = _initialSupply;\r\n\t\tbalances[msg.sender] = totalSupply;\r\n\t}\r\n\r\n\tfunction transfer(address _to, uint256 value) public returns (bool) {\r\n\t\trequire(value <= balances[msg.sender]);\r\n\t\tbalances[msg.sender] = balances[msg.sender] - value;\r\n\t\tbalances[_to] = balances[_to] + value;\r\n\t\temit Transfer(msg.sender, _to, value);\r\n\t\treturn true;\r\n\t}\r\n\r\n\tfunction approve(address _spender, uint _value) public returns (bool success) {\r\n\t\tallowance[msg.sender][_spender] = _value;\r\n\t\temit Approval(msg.sender, _spender, _value);\r\n\t\treturn true;\r\n\t}\r\n\r\n\tfunction transferFrom(address _from, address _to, uint256 _value) public returns (bool success) {\r\n\t\trequire(_value <= balances[_from]);\r\n\t\trequire(_value <= allowance[_from][msg.sender]);\r\n\t\tbalances[_from] = balances[_from] - _value;\r\n\t\tbalances[_to] = balances[_to] + _value;\r\n\t\tallowance[_from][msg.sender] = allowance[_from][msg.sender] - _value;\t\r\n\t\temit Transfer(_from, _to, _value);\r\n\t\treturn true;\r\n\t}\r\n\r\n}",
  "sourcePath": "C:\\Users\\Dell\\Desktop\\AshToken\\eth\\contracts\\AshToken.sol",
  "compiler": {
    "name": "solc",
    "version": "0.8.13+commit.abaa5c0e.Emscripten.clang"
  },
  "schemaVersion": "3.4.7",
  "updatedAt": "2022-05-11T18:29:23.701Z",
  "devdoc": {
    "kind": "dev",
    "methods": {},
    "version": 1
  },
  "userdoc": {
    "kind": "user",
    "methods": {},
    "version": 1
  }
}